:020000040800F2
:1000000000500020911B0008351400083714000828
:10001000391400083B1400083D14000800000000DB
:100020000000000000000000000000003F14000875
:1000300041140008000000004314000845140008A3
:10004000D91B0008D91B0008D91B0008D91B0008C0
:10005000D91B0008D91B0008D91B0008D91B0008B0
:10006000D91B0008D91B0008D91B0008D91B0008A0
:10007000D91B0008D91B0008D91B0008D91B000890
:10008000D91B0008D91B0008D91B0008D91B000880
:10009000D91B0008D91B0008D91B0008D91B000870
:1000A000D91B0008D91B0008D91B0008D91B000860
:1000B000D91B0008D91B0008D91B0008D91B000850
:1000C000D91B0008D91B0008D91B0008D91B000840
:1000D000D91B0008D91B00084D140008D91B0008C3
:1000E000D91B0008D91B0008D91B0008000000001C
:1000F0000000000000000000000000000000000000
:0C01000000000000000000005FF808F1A3
:1001100010B5054C237833B9044B13B10448AFF341
:1001200000800123237010BDC009002000000000E2
:100130002CCE000808B5034B1BB103490348AFF3AD
:10014000008008BD00000000C40900202CCE00087B
:1001500081F0004102E000BF83F0004330B54FEA78
:1001600041044FEA430594EA050F08BF90EA020FE5
:100170001FBF54EA000C55EA020C7FEA645C7FEA78
:10018000655C00F0E2804FEA5454D4EB5555B8BF9B
:100190006D420CDD2C4480EA020281EA030382EA0C
:1001A000000083EA010180EA020281EA0303362D9E
:1001B00088BF30BD11F0004F4FEA01314FF4801C71
:1001C0004CEA113102D0404261EB410113F0004F83
:1001D0004FEA03334CEA133302D0524263EB43033A
:1001E00094EA050F00F0A780A4F10104D5F1200ED8
:1001F0000DDB02FA0EFC22FA05F2801841F1000133
:1002000003FA0EF2801843FA05F359410EE0A5F106
:1002100020050EF1200E012A03FA0EFC28BF4CF037
:10022000020C43FA05F3C01851EBE37101F00045ED
:1002300007D54FF0000EDCF1000C7EEB00006EEBFA
:100240000101B1F5801F1BD3B1F5001F0CD3490884
:100250005FEA30004FEA3C0C04F101044FEA4452DB
:1002600012F5800F80F09A80BCF1004F08BF5FEA62
:10027000500C50F1000041EB045141EA050130BD42
:100280005FEA4C0C404141EB0101013C28BFB1F554
:10029000801FE9D291F0000F04BF01460020B1FA9F
:1002A00081F308BF2033A3F10B03B3F120020CDA72
:1002B0000C3208DD02F1140CC2F10C0201FA0CF050
:1002C00021FA02F10CE002F11402D8BFC2F1200CB5
:1002D00001FA02F120FA0CFCDCBF41EA0C0190406B
:1002E000E41AA2BF01EB0451294330BD6FEA0404B4
:1002F0001F3C1CDA0C340EDC04F11404C4F120029F
:1003000020FA04F001FA02F340EA030021FA04F3B0
:1003100045EA030130BDC4F10C04C4F1200220FA07
:1003200002F001FA04F340EA0300294630BD21FA45
:1003300004F0294630BD94F0000F83F4801306BF0B
:1003400081F480110134013D4EE77FEA645C18BFFF
:100350007FEA655C29D094EA050F08BF90EA020F96
:1003600005D054EA000C04BF1946104630BD91EA8E
:10037000030F1EBF0021002030BD5FEA545C05D191
:100380004000494128BF41F0004130BD14F58004D0
:100390003CBF01F5801130BD01F0004545F0FE4144
:1003A00041F470014FF0000030BD7FEA645C1ABF79
:1003B000194610467FEA655C1CBF0B46024650EAB0
:1003C000013406BF52EA033591EA030F41F40021DC
:1003D00030BD00BF90F0000F04BF0021704730B562
:1003E0004FF4806404F132044FF000054FF0000137
:1003F00050E700BF90F0000F04BF0021704730B5F8
:100400004FF4806404F1320410F0004548BF4042CC
:100410004FF000013EE700BF42004FEAE2014FEA21
:1004200031014FEA02701FBF12F07F4393F07F4FFC
:1004300081F06051704732F07F4208BF704793F0FF
:100440007F4F04BF41F40021704730B54FF4607412
:1004500001F0004521F000411CE700BF50EA010215
:1004600008BF704730B54FF000050AE050EA0102BE
:1004700008BF704730B511F0004502D5404261EB2E
:1004800041014FF4806404F132045FEA915C3FF46F
:10049000D8AE4FF003025FEADC0C18BF03325FEA0C
:1004A000DC0C18BF033202EBDC02C2F1200300FABD
:1004B00003FC20FA02F001FA03FE40EA0E0021FAE2
:1004C00002F11444BDE600BF70B54FF0FF0C4CF4D0
:1004D000E06C1CEA11541DBF1CEA135594EA0C0F82
:1004E00095EA0C0F00F0DEF82C4481EA030621EABD
:1004F0004C5123EA4C5350EA013518BF52EA0335F8
:1005000041F4801143F4801338D0A0FB02CE4FF0A9
:100510000005E1FB02E506F00042E0FB03E54FF0D9
:100520000006E1FB03569CF0000F18BF4EF0010ED1
:10053000A4F1FF04B6F5007F64F5407404D25FEACD
:100540004E0E6D4146EB060642EAC62141EA555180
:100550004FEAC52040EA5E504FEACE2EB4F1FD0CC2
:1005600088BFBCF5E06F1ED8BEF1004F08BF5FEA40
:10057000500E50F1000041EB045170BD06F00046F2
:1005800046EA010140EA020081EA0301B4EB5C049F
:10059000C2BFD4EB0C0541EA045170BD41F4801197
:1005A0004FF0000E013C00F3AB8014F1360FDEBFBC
:1005B000002001F0004170BDC4F10004203C35DA98
:1005C0000C341BDC04F11404C4F1200500FA05F31B
:1005D00020FA04F001FA05F240EA020001F00042BC
:1005E00021F0004110EBD37021FA04F642EB060132
:1005F0005EEA430E08BF20EAD37070BDC4F10C045C
:10060000C4F1200500FA04F320FA05F001FA04F21F
:1006100040EA020001F0004110EBD37041F100010B
:100620005EEA430E08BF20EAD37070BDC4F1200516
:1006300000FA05F24EEA020E20FA04F301FA05F27E
:1006400043EA020321FA04F001F0004121FA04F226
:1006500020EA020000EBD3705EEA430E08BF20EAF6
:10066000D37070BD94F0000F0FD101F00046400030
:1006700041EB010111F4801F08BF013CF7D041EAB2
:10068000060195F0000F18BF704703F000465200B6
:1006900043EB030313F4801F08BF013DF7D043EA87
:1006A0000603704794EA0C0F0CEA135518BF95EA3D
:1006B0000C0F0CD050EA410618BF52EA4306D1D1C4
:1006C00081EA030101F000414FF0000070BD50EAE3
:1006D000410606BF1046194652EA430619D094EA6D
:1006E0000C0F02D150EA013613D195EA0C0F05D157
:1006F00052EA03361CBF104619460AD181EA0301AB
:1007000001F0004141F0FE4141F470014FF0000062
:1007100070BD41F0FE4141F4780170BD70B54FF0FD
:10072000FF0C4CF4E06C1CEA11541DBF1CEA13557D
:1007300094EA0C0F95EA0C0F00F0A7F8A4EB05045F
:1007400081EA030E52EA03354FEA013100F0888056
:100750004FEA03334FF0805545EA131343EA12631F
:100760004FEA022245EA111545EA10654FEA0026D4
:100770000EF000419D4208BF964244F1FD0404F58D
:10078000407402D25B084FEA3202B61A65EB0305E9
:100790005B084FEA32024FF480104FF4002CB6EBA6
:1007A000020E75EB030E22BFB61A754640EA0C0026
:1007B0005B084FEA3202B6EB020E75EB030E22BF66
:1007C000B61A754640EA5C005B084FEA3202B6EBA7
:1007D000020E75EB030E22BFB61A754640EA9C0066
:1007E0005B084FEA3202B6EB020E75EB030E22BF36
:1007F000B61A754640EADC0055EA060E18D04FEAF4
:10080000051545EA16754FEA06164FEAC30343EA93
:1008100052734FEAC2025FEA1C1CC0D111F4801F60
:100820000BD141EA00014FF000004FF0004CB6E759
:1008300011F4801F04BF01430020B4F1FD0C88BFF8
:10084000BCF5E06F3FF6AFAEB5EB030C04BFB6EB03
:10085000020C5FEA500C50F1000041EB045170BDF6
:100860000EF0004E4EEA113114EB5C04C2BFD4EB23
:100870000C0541EA045170BD41F480114FF0000EA7
:10088000013C90E645EA060E8DE60CEA135594EA23
:100890000C0F08BF95EA0C0F3FF43BAF94EA0C0F26
:1008A0000AD150EA01347FF434AF95EA0C0F7FF49B
:1008B00025AF104619462CE795EA0C0F06D152EAEF
:1008C00003353FF4FDAE1046194622E750EA4106D3
:1008D00018BF52EA43067FF4C5AE50EA41047FF4E4
:1008E0000DAF52EA43057FF4EBAE12E74A0011D296
:1008F00012F5001211D20DD56FF47873B3EB62527A
:100900000ED44FEAC12343F0004343EA505323FA85
:1009100002F070474FF00000704750EA013002D1FA
:100920004FF0FF3070474FF000007047844641EAB7
:10093000000313F0030349D1403A23D30B6803604B
:100940004B6843608B688360CB68C3600B6903614D
:100950004B6943618B698361CB69C3610B6A036235
:100960004B6A43628B6A8362CB6AC3620B6B03631D
:100970004B6B43638B6B8363CB6BC3634030403102
:10098000403ADBD230320BD30B6803604B684360D4
:100990008B688360CB68C36010301031103AF3D29B
:1009A0000C3205D351F8043B40F8043B043AF9D229
:1009B000043208D0D2071CBF11F8013B00F8013BFC
:1009C00001D30B8803806046704700BF082A13D309
:1009D0008B07B1D010F00303AED0C3F10403D21AD9
:1009E000DB071CBF11F8013B00F8013BA4D331F831
:1009F000023B20F8023B9FE7043AD9D3013A11F8B1
:100A0000013B00F8013BF9D20B7803704B7843703F
:100A10008B788370604670474FF0FF3C06E000BF64
:100A20004FF0010C02E000BF4FF0010C4DF804CD77
:100A30004FEA410C7FEA6C5C4FEA430C18BF7FEA37
:100A40006C5C1BD001B050EA410C0CBF52EA430C65
:100A500091EA030F02BF90EA020F0020704710F1E5
:100A6000000F91EA030F58BF994208BF90422CBF74
:100A7000D8176FEAE37040F0010070474FEA410C6D
:100A80007FEA6C5C02D150EA013C07D14FEA430C8B
:100A90007FEA6C5CD6D152EA033CD3D05DF8040BFC
:100AA000704700BF8446104662468C46194663462E
:100AB00000E000BF01B5FFF7B7FF002848BF10F105
:100AC000000F01BD4DF808EDFFF7F4FF0CBF01204A
:100AD00000205DF808FB00BF4DF808EDFFF7EAFFC6
:100AE00034BF012000205DF808FB00BF4DF808ED81
:100AF000FFF7E0FF94BF012000205DF808FB00BF76
:100B00004DF808EDFFF7CEFF94BF012000205DF8FF
:100B100008FB00BF4DF808EDFFF7C4FF34BF01200C
:100B200000205DF808FB00BF4FEA410C7FEA6C5CD7
:100B300002D150EA013C0AD14FEA430C7FEA6C5CD7
:100B400002D152EA033C02D14FF0000070474FF04F
:100B5000010070474FEA410212F5001215D211D57B
:100B60006FF47873B3EB625212D94FEAC12343F0AA
:100B7000004343EA505311F0004F23FA02F018BF2C
:100B8000404270474FF00000704750EA013005D1F5
:100B900011F0004008BF6FF0004070474FF00000B8
:100BA000704700BF4FEA4102B2F1E04324BFB3F502
:100BB000001CDCF1FE5C0DD901F0004C4FEAC002D4
:100BC0004CEA5070B2F1004F40EB830008BF20F0B8
:100BD0000100704711F0804F21D113F13872BCBF72
:100BE00001F00040704741F480114FEA5252C2F1C7
:100BF0001802C2F1200C10FA0CF320FA02F018BF10
:100C000040F001004FEAC1234FEAD32303FA0CFC62
:100C100040EA0C0023FA02F34FEA4303CCE77FEAF1
:100C2000625307D150EA01331EBF4FF0FE4040F43B
:100C30004000704701F0004040F0FE4040F40000EA
:100C4000704700BF53B94AB9002908BF00281CBF2C
:100C50004FF0FF314FF0FF3000F0AEB9ADF1080CAE
:100C60006DE904CE00F03EF8DDF804E0DDE9022392
:100C700004B0704738B505460C46002200232846CC
:100C80002146FFF729FF28B928462146BDE838400C
:100C900000F00AB8284604F1004100F005F840428F
:100CA00061EB410138BD00BFD0B500220B4B0646B9
:100CB0000F46FFF709FCFFF719FE0446FFF78AFB12
:100CC0000022074BFFF700FC02460B463046394630
:100CD000FFF742FAFFF70AFE2146D0BD0000F03DC3
:100CE0000000F0412DE9F047089E0D460446884675
:100CF000002B4DD18A42944668D9B2FA82F252B1A1
:100D000001FA02F3C2F1200120FA01F10CFA02FC0F
:100D100041EA030894404FEA1C41B8FBF1F71FFA7F
:100D20008CFE01FB178807FB0EF0230C43EA0843F7
:100D300098420AD91CEB030307F1FF3580F01E81AE
:100D4000984240F21B81023F63441B1AB3FBF1F04F
:100D500001FB103300FB0EFEA4B244EA0344A64597
:100D60000AD91CEB040400F1FF3380F00981A64589
:100D700040F20681644402380021A4EB0E0440EAEC
:100D800007401EB10023D440C6E90043BDE8F08708
:100D90008B4208D9002E00F0EE800021C6E9000544
:100DA0000846BDE8F087B3FA83F100294AD1AB4287
:100DB00002D3824200F2FC80841A65EB0303012017
:100DC0009846002EE2D0C6E90048DFE702B9FFDE10
:100DD000B2FA82F2002A40F09180A1EB0C000121CE
:100DE0004FEA1C471FFA8CFEB0FBF7F307FB13001A
:100DF000250C45EA00450EFB03F0A84208D91CEB80
:100E0000050503F1FF3802D2A84200F2CE80434626
:100E10002D1AB5FBF7F007FB10550EFB00FEA4B230
:100E200044EA0544A64508D91CEB040400F1FF354B
:100E300002D2A64500F2B6802846A4EB0E0440EA92
:100E400003409EE7C1F120078B4022FA07FC4CEAE1
:100E5000030C25FA07FA4FEA1C49BAFBF9F820FA05
:100E600007F309FB18AA8D401FFA8CFE1D4300FAF8
:100E700001F308FB0EF02C0C44EA0A44A04202FAEB
:100E800001F20BD91CEB040408F1FF3A80F08880D2
:100E9000A04240F28580A8F102086444241AB4FB01
:100EA000F9F009FB104400FB0EFEADB245EA044424
:100EB000A64508D91CEB040400F1FF356CD2A64509
:100EC0006AD90238644440EA0840A0FB0295A4EBCA
:100ED0000E04AC42C846AE4656D353D0002E69D05D
:100EE000B3EB080264EB0E0422FA01F304FA07F7ED
:100EF0001F43CC40C6E90074002147E70CFA02FC0E
:100F0000C2F1200125FA01F34FEA1C4720FA01F152
:100F100095400D43B3FBF7F107FB11331FFA8CFE2D
:100F2000280C40EA034001FB0EF3834204FA02F46A
:100F300008D91CEB000001F1FF382FD283422DD9D4
:100F400002396044C01AB0FBF7F307FB1300ADB2DF
:100F500045EA004503FB0EF0A84208D91CEB050545
:100F600003F1FF3816D2A84214D9023B6544281A6F
:100F700043EA014138E73146304607E72F46E4E6C9
:100F80001846F9E64B45A9D2B9EB020865EB0C0E01
:100F90000138A3E74346EAE7284694E74146D1E70C
:100FA000D0467BE76444023847E7023B65442FE7BD
:100FB000084606E73146E9E6704700BF2DE9F843E9
:100FC00090469946DDE90A67FFF7C6F804460D46E4
:100FD00042464B46DDE90801FFF7BEF802460B46E4
:100FE00020462946FFF79AFB04460D4632463B460B
:100FF000DDE90C01FFF7B0F802460B462046294612
:10100000FFF762FA32463B46FFF7A8F8BDE8F883DF
:1010100010B5224C0021204601F0D4FD04212046C9
:1010200001F0D0FD0821204601F0CCFD0C21204626
:1010300001F0C8FD1A4C0021204601F0C3FD042137
:10104000204601F0BFFD0821204601F0BBFD0C2128
:10105000204601F0B7FD134C0021204601F0B2FDFF
:101060000421204601F0AEFD0821204601F0AAFD32
:101070000C21204601F0A6FD0B4C0021204601F07A
:10108000A1FD0421204601F09DFD0821204601F02C
:1010900099FD0C21204601F095FD10BD1C0A002091
:1010A000640A0020AC0A0020F40A002011B9036889
:1010B0005A637047042904D0082905D003681A64CC
:1010C000704703689A6370470368DA6370470000EB
:1010D00030B587B014461D46431E032B06D8DFE803
:1010E00003F0020C10142C4B2C4A1A60013903290E
:1010F00012D8DFE801F00E3B3F43274B284A1A6025
:10110000F4E7254B274A1A60F0E7234B264A1A607A
:10111000ECE7264B00221A8000224FF07F53CDE9E6
:10112000042319A3D3E90023CDE902230A98FFF78A
:1011300061F9CDE900010022002320462946FFF78E
:101140003DFF04460D461A4BC3E9004510A3D3E901
:101150000023FFF7B9F9FFF7C9FB82B2134B1988D7
:101160000D4B1868FFF7A2FF07B030BD0F4B0422EC
:101170001A80D1E70D4B08221A80CDE70B4B0C22C9
:101180001A80C9E7AFF300809A9999999999993F84
:101190000000000000388F40E80900201C0A0020F1
:1011A000640A0020AC0A0020F40A0020DC090020B8
:1011B000E009002010B588B0002204920592069242
:1011C0000792184B996941F020019961996901F0E2
:1011D000200101910199996941F00401996199698E
:1011E00001F0040102910299996941F008019961A5
:1011F0009B6903F008030393039B0B4C4FF440419E
:10120000204600F037FF4FF4404304930123059339
:1012100002230693079304A9204600F019FE08B0A4
:1012200010BD00BF00100240000C01401B4B834268
:1012300000D0704770B51A4B1B78122B0ED8591C72
:10124000174A1170174A12781749CA540A2A0FD040
:1012500001221449114802F046F870BD0023104ADB
:101260001370114A136053609360D3601361EFE70A
:1012700000260B4B1E700D4B01221A700D460C4CB4
:101280008C46BCE80F000FC4DCF8003023602E60F1
:101290006E60AE60EE602E61DAE700BF3C0B0020AE
:1012A000EC090020EE090020F0090020ED090020E3
:1012B000040A002008B572B601224FF4004102482A
:1012C00000F0D8FEF8E700BF000C014000B591B077
:1012D0002822002106A802F043F80023019302937C
:1012E000039304930593012206924FF480330793EE
:1012F0000A9202220D920E934FF4E0130F9306A868
:1013000000F0D4FE80B90F23019302210291002343
:1013100003934FF480620492059301A801F0F8F85A
:1013200020B911B05DF804FBFFF7C4FFFFF7C2FF5F
:1013300000B589B000F078FCFFF7C8FFFFF73AFF6F
:1013400000F0D4F900F064FA00F0D8FA00F04CFB99
:1013500000F0C0FB002307930693059300220023AF
:10136000CDE90223FFF754FE01221B491B4801F07F
:10137000BAFF12E0059B0093DDE90223BDF81810C7
:101380009DF81C00FFF7A4FE0A2000F071FC00226B
:101390004FF48041124800F06DFE124B1B78002B79
:1013A000FBD00024059401224FF480410C4800F04A
:1013B00061FE0C4B1C7005AB019302AB009306ABB6
:1013C00007AA0949094802F01DF8059B002BD1D155
:1013D000B4230593CEE700BFEE0900203C0B0020AC
:1013E000000C0140ED09002048CE0008040A00204E
:1013F00082B00E4B9A6942F001029A619A6902F03A
:1014000001020092009ADA6942F08052DA61DB69E7
:1014100003F080530193019B054A536823F0E06376
:1014200043F00073536002B0704700BF00100240E9
:1014300000000140FEE7FEE7FEE7FEE7FEE770473B
:101440007047704708B500F001FC08BD08B50248B8
:1014500001F0EAFD08BD00BF3C0B002001207047F1
:1014600008B501F053FF162303604FF0FF3008BDAD
:1014700008B54FF0FF31FFF7F3FFFEE770B50C46FC
:101480001646002506E0AFF30080214601F8010B67
:1014900001350C46B542F6DB304670BD70B50C46E2
:1014A0001646002504E014F8010BAFF30080013567
:1014B000B542F8DB304670BD4FF0FF3070474FF457
:1014C00000534B6000207047012070470020704798
:1014D00010B503460C4A0D490D48006840B10C4850
:1014E00000680344521A934206D8094A136010BD9B
:1014F0000748084C0460F2E701F008FF0C23036082
:101500004FF0FF30F3E700BF005000200004000060
:10151000180A0020D00B00207047000084B0036838
:101520001C4A934213D0B3F1804F1CD01A4A934205
:1015300025D01A4A934214D1194BDA6942F00402B9
:10154000DA61DB6903F004030393039B09E0144BA6
:101550009A6942F400629A619B6903F40063009304
:10156000009B04B0704703F50433DA6942F00102CE
:10157000DA61DB6903F001030193019BF1E7084B9A
:10158000DA6942F00202DA61DB6903F002030293D6
:10159000029BE6E7002C01400004004000080040E8
:1015A0000010024010B58AB00023069307930893F9
:1015B00009930368464A93420AD0B3F1804F1CD086
:1015C000444A934249D0444A93426BD00AB010BD7A
:1015D000424B9A6942F004029A619B6903F004034A
:1015E0000093009B4FF470630693022307930993C3
:1015F00006A93B4800F02CFCE8E703F504339A69A0
:1016000042F004029A619A6902F004020192019A7E
:101610009A6942F008029A619B6903F008030293F9
:10162000029B0323069302240794099406A92C48DD
:1016300000F00EFC4FF4406306930794099406A94A
:10164000284800F005FC284A536823F4407343F00F
:10165000E06343F400735360B8E7204B9A6942F0AB
:1016600004029A619A6902F004020392039A9A6949
:1016700042F008029A619B6903F008030493049BFB
:10168000C023069302240794099406A9144800F085
:10169000DFFB032306930794099406A9114800F081
:1016A000D7FB93E70D4B9A6942F008029A619B6958
:1016B00003F008030593059B4FF470730693022310
:1016C0000793099306A9074800F0C2FB7EE700BF15
:1016D000002C0140000400400008004000100240BF
:1016E00000080140000C01400000014010B596B018
:1016F0000024129413941494159410941194099442
:101700000A940B940C940D940E940F94202221466D
:1017100001A801F025FE3C483C4B036040F29F537A
:101720004360846040F2E733C360046144618461D4
:1017300001F0B6F800284BD14FF48053129312A950
:10174000314801F0B1F9002845D12F4801F0D4F813
:10175000002843D100231093119310A92A4801F0C7
:101760009FFA00283DD16023099300220A920B9230
:101770000C920D920E920F9209A9234801F01AF9CA
:10178000002831D1042209A91F4801F013F970BBC8
:10179000082209A91C4801F00DF958BB0C2209A91F
:1017A000194801F007F940BB00230193029303930A
:1017B000049305934FF400520692089301A912482E
:1017C00001F0A4FAE0B91048FFF7ECFE16B010BD26
:1017D000FFF770FDB0E7FFF76DFDB6E7FFF76AFDB5
:1017E000B8E7FFF767FDBEE7FFF764FDCAE7FFF75D
:1017F00061FDCDE7FFF75EFDD0E7FFF75BFDD3E7C7
:10180000FFF758FDDFE700BF1C0A0020002C014055
:1018100000B58FB000230A930B930C930D9308939C
:1018200009930193029303930493059306930793FB
:1018300031484FF08042026040F29F524260836024
:1018400040F2E732C2600361836101F029F80028A9
:1018500039D14FF480530A930AA9274801F024F99B
:10186000002833D1244801F047F8002831D1002363
:101870000893099308A9204801F012FA60BB60237D
:101880000193002202920392059201A91A4801F0E5
:1018900091F820BB04220DEB0201174801F08AF8F1
:1018A00000BB082201A9144801F084F8E8B90C2211
:1018B00001A9114801F07EF8D0B90F48FFF772FE78
:1018C0000FB05DF804FBFFF7F5FCC2E7FFF7F2FC91
:1018D000C8E7FFF7EFFCCAE7FFF7ECFCCFE7FFF73D
:1018E000E9FCD7E7FFF7E6FCDBE7FFF7E3FCDEE721
:1018F000FFF7E0FCE1E700BF640A002000B58FB00D
:1019000000230A930B930C930D930893099301936F
:101910000293039304930593069307933048314A47
:10192000026040F29F524260836040F2E732C26040
:101930000361836100F0B4FF002839D14FF4805374
:101940000A930AA9264801F0AFF8002833D12448A9
:1019500000F0D2FF002831D100230893099308A991
:101960001F4801F09DF960BB6023019300220292A1
:101970000392059201A91A4801F01CF820BB042229
:101980000DEB0201164801F015F800BB082201A971
:10199000134801F00FF8E8B90C2201A9104801F032
:1019A00009F8D0B90E48FFF7FDFD0FB05DF804FB54
:1019B000FFF780FCC2E7FFF77DFCC8E7FFF77AFC82
:1019C000CAE7FFF777FCCFE7FFF774FCD7E7FFF72D
:1019D00071FCDBE7FFF76EFCDEE7FFF76BFCE1E78E
:1019E000AC0A00200004004000B58FB000230A9329
:1019F0000B930C930D930893099301930293039314
:101A000004930593069307933048314A026040F2ED
:101A10009F524260836040F2E732C260036183619B
:101A200000F03EFF002839D14FF480530A930AA9F1
:101A3000264801F039F8002833D1244800F05CFF33
:101A4000002831D100230893099308A91F4801F009
:101A500027F960BB60230193002202920392059252
:101A600001A91A4800F0A6FF20BB04220DEB0201D9
:101A7000164800F09FFF00BB082201A9134800F0A0
:101A800099FFE8B90C2201A9104800F093FFD0B9E2
:101A90000E48FFF787FD0FB05DF804FBFFF70AFC67
:101AA000C2E7FFF707FCC8E7FFF704FCCAE7FFF748
:101AB00001FCCFE7FFF7FEFBD7E7FFF7FBFBDBE718
:101AC000FFF7F8FBDEE7FFF7F5FBE1E7F40A00209C
:101AD0000008004008B50A480A4B03604FF416534B
:101AE000436000238360C36003610C224261836111
:101AF000C36101F0DDF900B908BDFFF7DBFBFBE7CF
:101B00003C0B00200044004030B587B00023029316
:101B100003930493059302681B4B9A4201D007B0CC
:101B200030BD03F5E633DA6942F40032DA61DA698E
:101B300002F400320092009A9A6942F004029A611B
:101B40009B6903F004030193019B04230293022386
:101B50000393032305930D4D02A9284600F078F95D
:101B6000082302930024039404940DEB03012846F8
:101B700000F06EF922462146262000F09FF826202C
:101B800000F0D4F8CBE700BF00440040000801405B
:101B9000FFF7C2FC0B480C490C4A002302E0D45862
:101BA000C4500433C4188C42F9D3094A094C0023A9
:101BB00001E013600432A242FBD301F0ADFBFFF75A
:101BC000B7FB704700000020BC090020C0D400080B
:101BD000C0090020D00B0020FEE7000010B504462D
:101BE0000E4B18784FF47A73B3FBF0F30C4A10687D
:101BF000B0FBF3F000F0A8F868B90F2C01D9012070
:101C00000AE0002221464FF0FF3000F057F8054B64
:101C10001C60002000E0012010BD00BF0400002077
:101C2000000000200800002008B5074A136843F0B0
:101C300010031360032000F02FF80F20FFF7CEFFF2
:101C4000FFF7D6FB002008BD00200240034A1168C0
:101C5000034B1B780B441360704700BF840B0020BC
:101C600004000020014B1868704700BF840B00205F
:101C700038B50446FFF7F6FF0546B4F1FF3F02D042
:101C8000044B1B781C44FFF7EDFF401BA042FAD326
:101C900038BD00BF04000020074AD36823F4E06386
:101CA0001B041B0C000200F4E060034343F0BF631D
:101CB00043F40033D360704700ED00E000B5194BEA
:101CC000DB68C3F30223C3F1070CBCF1040F28BF88
:101CD0004FF0040C03F1040EBEF1060F18D9033BBC
:101CE0004FF0FF3E0EFA0CFC21EA0C0199400EFA6F
:101CF00003F322EA0303194300280BDB0901C9B2ED
:101D000000F1604000F5614080F800135DF804FBCD
:101D10000023E5E700F00F000901C9B2024B195496
:101D2000F4E700BF00ED00E014ED00E0002807DB61
:101D300000F01F02400901239340024A42F820307C
:101D4000704700BF00E100E00138B0F1807F0BD2A6
:101D50004FF0E0235861054AF02182F8231000205B
:101D6000986107221A6170470120704700ED00E07A
:101D700090F82130DBB2022B06D0042383630023CA
:101D800080F82030012070470268136823F00E03AA
:101D900013600268136823F001031360036CC16BC6
:101DA000012202FA03F34B6080F82120002380F81F
:101DB000203018467047000008B590F82130DBB29B
:101DC000022B03D004238363012008BD026813683B
:101DD00023F00E0313600268136823F001031360FD
:101DE0000368194A934214D0143293421FD014321C
:101DF00093421ED0143293421ED0143293421ED00E
:101E00001432934202D04FF0807203E04FF48012FC
:101E100000E001220D4B5A60012380F8213000239D
:101E200080F82030436B6BB198470020CDE710223B
:101E3000F0E74FF48072EDE74FF48052EAE74FF499
:101E40008032E7E70020C0E70800024000000240BF
:101E500070B582B00024A446A6E0804DAA4210D0FE
:101E600007D97F4DAA420CD005F58035AA4208D08B
:101E700013E0A5F58015AA4203D005F57025AA4206
:101E800007D18A68002A58D0012A51D0436108241A
:101E900003E0A5F58015AA42F3D0BEF1FF0F4ED89E
:101EA0000646BEF1FF0F4CD84FEA8C0233680F256F
:101EB000954023EA050304FA02F2134333604B68AA
:101EC00013F0805F6ED0674B9A6942F001029A610D
:101ED0009B6903F001030193019B4FEA9C02951C4F
:101EE000614B53F825600CF003039D000F23AB40BA
:101EF00026EA03065D4B984229D003F58063984299
:101F000000F08E8003F58063984200F08B8003F52B
:101F10008063984219D004231AE0CC68BDE7CC68EE
:101F20000434BAE7CC680834B7E7CC680C34B4E7BB
:101F300003610824B1E70024AFE70424ADE7061DE0
:101F4000AFE7ACF108029200B0E7032300E0002302
:101F5000AB4033430232444D45F822304B6813F412
:101F6000801F61D0424A936843EA0E0393604B6836
:101F700013F4001F5ED03E4AD36843EA0E03D360D9
:101F80004B6813F4003F5BD0394A536843EA0E03B1
:101F900053604B6813F4803F58D0354A136843EAC6
:101FA0000E0313600CF1010C0A6832FA0CF353D0E3
:101FB000012303FA0CF302EA030E33EA0202F1D121
:101FC0004A68122A3FF649AF122A3FF666AF01A5CA
:101FD00055F822F0831E00081B1F0008251F00086B
:101FE000371F00089B1E00089B1E00089B1E000850
:101FF0009B1E00089B1E00089B1E00089B1E0008DD
:102000009B1E00089B1E00089B1E00089B1E0008CC
:102010009B1E00089B1E00081F1F00082B1F0008A6
:10202000012395E7022393E7114A936823EA0E03FD
:1020300093609CE70E4AD36823EA0E03D3609FE7C0
:102040000B4A536823EA0E035360A2E7084A136859
:1020500023EA0E031360A5E702B070BD0000221052
:102060000000311000100240000001400008014053
:10207000000401400AB10161704709040161704721
:1020800082B0084B1B68084AA2FB03235B0A00FBD3
:1020900003F3019300BF019B5A1E0192002BF9D15B
:1020A00002B0704700000020D34D6210002800F0FD
:1020B000F18170B582B00446036813F0010F2CD093
:1020C000994B5B6803F00C03042B1DD0964B5B68A7
:1020D00003F00C03082B12D06368B3F5803F41D0A6
:1020E000002B55D103F1804303F504331A6822F421
:1020F00080321A601A6822F480221A6037E08A4B14
:102100005B6813F4803FE7D0874B1B6813F4003FF4
:1021100003D06368002B00F0BF81236813F0020F27
:1021200075D0814B5B6813F00C0F5FD07E4B5B6802
:1021300003F00C03082B54D02369002B00F08A8095
:102140007A4B01221A60FFF78DFD0546764B1B681E
:1021500013F0020F75D1FFF785FD401B0228F5D95A
:1021600003209EE1704A136843F480331360636870
:1021700043B3FFF777FD05466B4B1B6813F4003F35
:10218000CBD1FFF76FFD401B6428F5D9032088E110
:10219000B3F5A02F09D0644B1A6822F480321A607C
:1021A0001A6822F480221A60E1E703F18043A3F564
:1021B0003C331A6842F480221A601A6842F4803272
:1021C0001A60D4E7FFF74EFD0546574B1B6813F422
:1021D000003FA2D0FFF746FD401B6428F5D903203D
:1021E0005FE1514B5B6813F4803FA5D14E4B1B68F8
:1021F00013F0020F03D02369012B40F04F814A4AAC
:10220000136823F0F803616943EAC103136023688C
:1022100013F0080F33D0A369002B5CD0434B01228D
:10222000C3F88024FFF71EFD05463F4B5B6A13F0A1
:10223000020F21D1FFF716FD401B0228F5D903201C
:102240002FE1394A136823F0F803616943EAC103B7
:102250001360DCE7354B00221A60FFF703FD0546EB
:10226000314B1B6813F0020FD1D0FFF7FBFC401B72
:102270000228F5D9032014E10120FFF701FF2368AC
:1022800013F0040F00F09680274BDB6913F0805F9A
:1022900034D1254BDA6942F08052DA61DB6903F010
:1022A00080530193019B0125214B1B6813F4807F10
:1022B00026D0E368012B3DD0002B53D103F180439E
:1022C00003F504331A6A22F001021A621A6A22F034
:1022D00004021A6233E0154B0022C3F88024FFF792
:1022E000C1FC0546104B5B6A13F0020FC7D0FFF725
:1022F000B9FC401B0228F5D90320D2E00025D3E722
:102300000B4A136843F480731360FFF7ABFC064677
:10231000074B1B6813F4807FCBD1FFF7A3FC801B16
:102320006428F5D90320BCE00010024000004242BE
:10233000007000405F4A136A43F001031362E368D0
:1023400033B3FFF78FFC06465A4B1B6A13F0020F9C
:102350002FD1FFF787FC801B41F288339842F3D9D5
:1023600003209EE0052B09D0524B1A6A22F001028D
:102370001A621A6A22F004021A62E0E74D4B1A6AE6
:1023800042F004021A621A6A42F001021A62D6E7A7
:10239000FFF768FC0646474B1B6A13F0020F08D094
:1023A000FFF760FC801B41F288339842F3D9032089
:1023B00077E0E5B9E369002B72D03E4A526802F03B
:1023C0000C02082A56D0022B17D03B4B00221A666B
:1023D000FFF748FC0446374B1B6813F0007F47D0DB
:1023E000FFF740FC001B0228F5D9032059E0314AD1
:1023F000D36923F08053D361DCE72F4B00221A66A8
:10240000FFF730FC05462B4B1B6813F0007F06D00E
:10241000FFF728FC401B0228F5D9032041E0236A7E
:10242000B3F5803F1AD023494B6823F47413226A12
:10243000606A024313434B601F4B01221A66FFF789
:1024400011FC04461B4B1B6813F0007F0ED1FFF7F5
:1024500009FC001B0228F5D9032022E0154A536825
:1024600023F40033A1680B435360DCE7002018E03D
:10247000002016E0012B16D00E4B5B6803F4803170
:10248000226A914211D103F47013626A93420ED111
:10249000002006E001207047012002E0012000E05A
:1024A000002002B070BD0120FBE70120F9E7012008
:1024B000F7E700BF00100240000042420F4B5B688C
:1024C00003F00C02082A01D00D487047C3F3834281
:1024D0000C49885C13F4803F0BD0084B5B68C3F356
:1024E0004043094AD35C064A02FB00F0B0FBF3F01C
:1024F0007047064B03FB00F0704700BF001002401E
:1025000000127A0074CE000884CE000800093D0055
:10251000002800F0A08070B50D460446524B1B68A1
:1025200003F007038B420BD24F4A136823F00703D3
:102530000B431360136803F007038B4240F08D8058
:10254000236813F0020F17D013F0040F04D0474A8A
:10255000536843F4E0635360236813F0080F04D01A
:10256000424A536843F460535360404A536823F02F
:10257000F003A1680B435360236813F0010F31D0BF
:102580006368012B20D0022B25D0384A126812F044
:10259000020F64D035494A6822F0030213434B60AE
:1025A000FFF760FB0646314B5B6803F00C03626883
:1025B000B3EB820F16D0FFF755FB801B41F2883337
:1025C0009842F0D9032045E0284A126812F4003FEF
:1025D000E0D101203EE0254A126812F0007FD9D1F7
:1025E000012037E0204B1B6803F00703AB420AD9F8
:1025F0001D4A136823F007032B431360136803F08D
:102600000703AB422DD1236813F0040F06D0174AFD
:10261000536823F4E063E1680B435360236813F0CD
:10262000080F07D0114A536823F46053216943EA25
:10263000C1035360FFF742FF0C4B5B68C3F3031306
:102640000B4AD35CD8400B4B18600B4B1868FFF754
:10265000C5FA002070BD012070470120FAE7012073
:10266000F8E70120F6E700BF00200240001002401A
:102670005CCE00080000002008000020014B186814
:10268000704700BF0000002008B5FFF7F7FF044BBC
:102690005B68C3F30223034AD35CD84008BD00BF84
:1026A000001002406CCE000808B5FFF7E7FF044BAE
:1026B0005B68C3F3C223034AD35CD84008BD00BFA4
:1026C000001002406CCE000870B4036A026A22F067
:1026D000010202624668826922F073020C6844EAD1
:1026E000020523F002028B6813430D4CA04209D06F
:1026F0000B4CA0420DD0466085614A68426303627C
:1027000070BC704723F00803CA68134323F0040326
:10271000EEE726F440764A6932438E691643EAE7CB
:10272000002C014030B4036A026A22F48072026213
:102730004568C26922F073020C68224323F40073D7
:102740008C6843EA04230F4CA04209D00D4CA042F0
:102750000ED04560C2614A68C263036230BC7047F4
:1027600023F40063CC6843EA042323F48063EDE799
:1027700025F440554C6945EA04158C6945EA041571
:10278000E7E700BF002C014030B4036A026A22F47C
:10279000805202624468C26922F4E6420D6842EA4D
:1027A000052223F400538D6843EA0533074DA84200
:1027B00006D04460C2614A680264036230BC70475C
:1027C00024F480444D6944EA8514F2E7002C01406A
:1027D00010B4036A046A24F001040462846924F0DA
:1027E000F00C4CEA021223F00A030B4382610362ED
:1027F00010BC704710B4036A046A24F01004046229
:10280000846924F4704C4CEA023223F0A00343EABA
:1028100001138261036210BC7047836823F0700368
:102820000B4343F0070383607047704703681B4AFC
:1028300090420AD0B0F1804F07D0A2F59432904276
:1028400003D002F58062904203D123F070034A68FE
:102850001343124A90420AD0B0F1804F07D0A2F53C
:102860009432904203D002F58062904203D123F467
:102870004073CA68134323F080034A69134303601B
:102880008B68C3620B688362044B984202D00123B9
:10289000436170470B690363F9E700BF002C0140F7
:1028A00040B310B5044690F83D30F3B1022384F8EC
:1028B0003D30214651F8040BFFF7B8FF012384F89F
:1028C000463084F83E3084F83F3084F8403084F855
:1028D000413084F8423084F8433084F8443084F83E
:1028E000453084F83D30002010BD80F83C30FEF7C4
:1028F00015FEDBE70120704740B310B5044690F8A1
:102900003D30F3B1022384F83D30214651F8040BE9
:10291000FFF78CFF012384F8463084F83E3084F8BA
:102920003F3084F8403084F8413084F8423084F8F5
:10293000433084F8443084F8453084F83D3000203A
:1029400010BD80F83C30FFF770FFDBE701207047D7
:1029500030B4036A026A22F010020262446882699B
:1029600022F4E6420D6842EA052223F020038D6836
:1029700043EA05130E4DA84209D00D4DA8420ED0D2
:10298000446082614A688263036230BC704723F00E
:102990008003CD6843EA051323F04003EDE724F4F8
:1029A00040644D6944EA85048D6944EA8504E7E79B
:1029B000002C014038B590F83C30012B66D004461D
:1029C0000D46012380F83C300C2A5AD8DFE802F08B
:1029D000075959591B5959593059595944000068D8
:1029E000FFF772FE2268936943F00803936122683F
:1029F000936923F0040393612268936929690B4367
:102A0000936100203EE00068FFF7A2FF226893690F
:102A100043F4006393612268936923F480639361B4
:102A200022689369296943EA01239361002029E020
:102A30000068FFF777FE2268D36943F00803D3618B
:102A40002268D36923F00403D3612268D36929691A
:102A50000B43D361002015E00068FFF795FE226864
:102A6000D36943F40063D3612268D36923F480639C
:102A7000D3612268D369296943EA0123D361002025
:102A800000E00120002384F83C3038BD0220FCE740
:102A900010B4846824F47F4C42EA03220A4342EAD9
:102AA0000C02826010BC704790F83C30012B78D04B
:102AB00010B50446012380F83C30022380F83D30F5
:102AC0000268936823F47F4323F0770393600B68D5
:102AD000602B4CD029D8402B54D00CD9502B22D16C
:102AE000CA6849680068FFF773FE50212068FFF745
:102AF00094FE002005E0202B0DD009D9302B0AD000
:102B00000120012384F83D30002384F83C3010BDBF
:102B10000BB1102B05D119462068FFF77EFE00206F
:102B2000EFE70120EDE70120EBE7B3F5805F34D05C
:102B3000B3F5005F0CD1CB684A6889680068FFF77D
:102B4000A7FF2268936843F4804393600020D8E78E
:102B5000702B24D1CB684A6889680068FFF798FF1A
:102B60002268936843F0770393600020C9E7CA683E
:102B700049680068FFF73EFE60212068FFF74DFEC0
:102B80000020BEE7CA6849680068FFF721FE4021BF
:102B90002068FFF742FE0020B3E70020B1E70120E4
:102BA000AFE70220704701F01F01012303FA01FC87
:102BB000036A23EA0C030362036A02FA01F10B437E
:102BC0000362704710B50446084651BB94F83E3086
:102BD000DBB2013B18BF0123002B5BD1002839D1A8
:102BE000022384F83E30012201462068FFF7DBFF14
:102BF00023682A4A93423DD02368284A93423ED014
:102C0000B3F1804F3BD0A2F59432934237D002F516
:102C10008062934233D01A6842F001021A600020A9
:102C200039E0042908D008290DD094F84130DBB2EE
:102C3000013B18BF0123CFE794F83F30DBB2013BE3
:102C400018BF0123C8E794F84030DBB2013B18BF3E
:102C50000123C1E7042805D0082807D0022384F8FF
:102C60004130C0E7022384F83F30BCE7022384F8F8
:102C70004030B8E75A6C42F400425A64BCE79A68A4
:102C800002F00702062A07D01A6842F001021A6011
:102C9000002000E0012010BD0020FCE7002C0140D6
:102CA00090F83C30012B2CD010B4012380F83C303C
:102CB000022380F83D3003685A689C6822F0700C4B
:102CC0000A6842EA0C025A6003680F4A93420AD02B
:102CD000B3F1804F07D0A2F59432934203D002F5AE
:102CE0008062934204D124F080044A6814439C60BB
:102CF000012380F83D30002380F83C30184610BC9A
:102D000070470220704700BF002C014090F83C3013
:102D1000012B22D0012380F83C30CB6823F4407390
:102D20008A68134323F480634A68134323F40063DF
:102D30000A68134323F480530A69134323F40053AE
:102D40004A69134323F48043CA69134302685364F6
:102D5000002380F83C301846704702207047026814
:102D600002F10C0353E8003F23F490730C3242E865
:102D700000310029F3D1026802F1140353E8003F47
:102D800023F00103143242E800310029F3D1036B30
:102D9000012B05D0202380F84230002303637047C5
:102DA000026802F10C0353E8003F23F010030C32D9
:102DB00042E800310029F3D1ECE790F84130DBB272
:102DC000212B01D0022070478368B3F5805F17D0B4
:102DD000036A5A1C02621A7803685A60C38C9BB259
:102DE000013B9BB2C3844BB90268D36823F08003D4
:102DF000D3600268D36843F04003D360002070477B
:102E00000369002BE4D1036A1B880268C3F308033B
:102E10005360036A02330362E0E7000010B5044622
:102E20000268136923F44053C1680B43136183683C
:102E30000269134342691A430168CB6823F4B05313
:102E400023F00C031343CB600268536923F44073EF
:102E500081690B4353610268134B9A4220D0FFF7FC
:102E600013FC024602EB820202EB820263689B00C3
:102E7000B2FBF3F20D48A0FB02314909642303FBC6
:102E800011231B013233A0FB03235B0903F0F00283
:102E900002EB011203F00F03216813448B6010BD95
:102EA000FFF702FC0246DDE7003801401F85EB51C9
:102EB00060B310B5044690F8413013B3242384F86E
:102EC00041302268D36823F40053D3602046FFF7D3
:102ED000A5FF2268136923F49043136122685369A4
:102EE00023F02A0353612268D36843F40053D3606C
:102EF00000206064202384F8413084F8423060630D
:102F000010BD80F84030FEF7FFFDD7E70120704785
:102F1000704708B50168CA6822F04002CA602022E2
:102F200080F84120FFF7F4FF002008BD704708B586
:102F3000406A0023C385C384FFF7F8FF08BD7047CC
:102F400090F84230DBB2222B69D18368B3F5805F01
:102F50004FD0826AB3F5805F04D0002B56D103694D
:102F6000002B53D103685B681370836A013383625B
:102F7000C38D9BB2013B9BB2C385002B51D100B5E1
:102F800083B00268D36823F02003D3600268D3685B
:102F900023F48073D3600268536923F00103536103
:102FA000202380F8423000234363036B012B33D18D
:102FB00000230363026802F10C0353E8003F23F08F
:102FC00010030C3242E800310029F3D103681A687B
:102FD00012F0100F06D0002201921A6801925B686D
:102FE0000193019B818DFFF7AAFF002003B05DF8DC
:102FF00004FB0269002AACD1826A03685B68C3F3F0
:1030000008031380836A02338362B1E703685B6855
:1030100003F07F031370A8E7FEF708F9E5E7022045
:10302000704700207047000030B583B00446026846
:103030001368D068516913F00F0505D113F0200F04
:1030400002D010F0200F19D12DB111F0010119D1CA
:1030500010F4907F16D1216B01297DD013F0800FE1
:1030600003D010F0800F40F0188113F0400F03D010
:1030700010F0400F40F0158103B030BD2046FFF73F
:103080005FFFF9E713F0010F06D010F4807F03D043
:10309000626C42F00102626413F0040F04D019B1B3
:1030A000626C42F00202626413F0020F04D019B1A4
:1030B000626C42F00402626413F0080F07D010F053
:1030C000200F00D119B1626C42F008026264626C98
:1030D000002AD1D013F0200F02D010F0200F29D1F8
:1030E00023685B6903F04003626C12F0080F00D1A3
:1030F00063B32046FFF733FE23685B6913F0400F8C
:1031000020D0226802F1140353E8003F23F040036B
:10311000143242E800310029F3D1E36B73B1634A02
:103120005A63E06BFEF748FE0028A5D0E06B436BC6
:103130009847A1E72046FFF703FFD1E72046FFF7B6
:10314000F5FE99E72046FFF7F1FE95E72046FFF7E9
:10315000EDFE002363648FE713F0100F3FF47EAFA2
:1031600010F0100F3FF47AAF00230193136801931E
:1031700053680193019B536913F0400F51D0E26BE8
:1031800013685B689BB2002B3FF476AFA18D994228
:103190007FF672AFE3859369202B37D0226802F166
:1031A0000C0353E8003F23F480730C3242E80031F3
:1031B0000029F3D1226802F1140353E8003F23F001
:1031C0000103143242E800310029F3D1226802F1F0
:1031D000140353E8003F23F04003143242E8003167
:1031E0000029F3D1202384F842300023236322688E
:1031F00002F10C0353E8003F23F010030C3242E8C5
:1032000000310029F3D1E06BFEF7B2FD02236363C6
:10321000A18DE38D9BB2C91A89B22046FFF78FFEBC
:103220002AE7A18DE38D9BB2C91A89B2E38D9BB2C7
:10323000002B3FF421AF00293FF41EAF226802F1BA
:103240000C0353E8003F23F490730C3242E8003043
:103250000028F3D1226802F1140353E8003F23F061
:103260000103143242E800300028F3D1202384F80F
:10327000423000232363226802F10C0353E8003F2D
:1032800023F010030C3242E800300028F3D102236F
:1032900063632046FFF753FEEEE62046FFF78DFD01
:1032A000EAE62046FFF735FEE6E600BF2F2F0008CE
:1032B00081628285C28500234364222380F84230E4
:1032C000036923B10268D36843F48073D360026852
:1032D000536943F0010353610268D36843F020034C
:1032E000D3600020704708B590F84230DBB2202B45
:1032F00008D149B10AB9012008BD00230363FFF7D3
:10330000D7FFF9E70220F7E70120F5E7014B18683E
:10331000704700BF0C00002070B50D4E0D4D761BA0
:10332000B61006D0002455F8043B01349847A64255
:10333000F9D1094E094D09F079FD761BB61006D07A
:10334000002455F8043B01349847A642F9D170BDDA
:10335000B4D40008B4D40008BCD40008B4D4000825
:10336000830730B548D0541E002A3FD00346CAB266
:1033700001E0013C3AD303F8012B9D07F9D1032C5E
:103380002DD9CDB245EA05250F2C45EA054536D99C
:10339000A4F1100222F00F0C03F1200EE6444FEAD4
:1033A000121C03F1100242E9045542E902551032A1
:1033B0007245F8D10CF1010214F00C0F03EB02126C
:1033C00004F00F0C13D0ACF1040323F00303043317
:1033D000134442F8045B9342FBD10CF003042CB17C
:1033E000CAB21C4403F8012B9C42FBD130BD644699
:1033F0001346002CF4D1F9E703461446BFE71A46FA
:10340000A446E0E70EB44FF40172F0B59CB021ADD4
:1034100055F8047BADF814200290069000F066F891
:10342000002604464FF6FF7C0A4B0B490A933A46A6
:103430002B46086802A901950E961396ADF816C0A2
:103440000394079400F080F81CB0BDE8F04003B08E
:10345000704700BF813400080C00002010B50C46F6
:10346000B1F90E1001F074FF002803DB236D034453
:10347000236510BDA38923F48053A38110BD00BF31
:10348000002070472DE9F0410C46B1F90C101F46A1
:10349000CB05054616460BD421F48051A1813B464D
:1034A00032462846B4F90E10BDE8F04101F0CCBB1D
:1034B000B4F90E100223002201F034FCB4F90C1010
:1034C000EAE700BF10B50C46B1F90E1001F02AFC76
:1034D000A389421C0EBF23F4805343F4805320651C
:1034E000A38110BDB1F90E1001F0D4BB20F003018F
:1034F00010F00300C0F1000051F8043B00F1040C8F
:103500004FEACC0C6FF000021CBF22FA0CF21343FE
:103510004FF0010C4CEA0C2C4CEA0C4CA3EB0C02C7
:1035200022EA030212EACC1204BF51F8043B043031
:10353000F4D0C2F1000102EA0102B2FA82F2C2F151
:103540001F0200EBD20070472DE9F04FADF5317D41
:1035500002AF7B62B1F90C30814698048A4608D4E8
:10356000496E43F4005321F40051AAF80C30CAF814
:103570006410134613F8012BFB637A64002A01F0F0
:10358000C0800023C7F838909946FB617B63BB611C
:103590003B623B63814B13F8028018F0080840F04F
:1035A0008180252A61D145464446F86B0278A2F114
:1035B0002503411C552B64D8DFE813F05600630047
:1035C00063006300630084056300630063006300BD
:1035D0006300D100D100D100D100D100D100D100D1
:1035E000D100D100D1006300630063006300630079
:1035F00063006300DC00630009056005DC00DC009B
:10360000DC006300630063006300A60463006300E2
:103610006A05630063006300740563006300630070
:103620006300AF04630063007A0563006300630016
:1036300063006300DC0063000B050E07DC00DC00A8
:10364000DC001D052905A6046300110541054F0591
:103650000C073105630063003505A20439056300DA
:103660006300AF046300A204F963DAF80430002BAE
:1036700047DDDAF80030FA6B197812F8012C914224
:1036800034D07B6B43B17B6BD3F80080B8F1000F73
:1036900002D0404601F064FB386B07F52F77BD463A
:1036A000BDE8F08FDAF80420BC6B0EE0DAF80030E9
:1036B0003A491A7801338A5C11070ED5DAF80420EA
:1036C00009F10109013ACAE90032002AEEDC51464B
:1036D000204603F07BFB0028E8D0FB6B13F8012B9E
:1036E000FB637A64002A7FF455AFCAE70133CAF856
:1036F0000030DAF8043009F10109013BCAF804305E
:10370000EBE75146B86B03F061FB0028B1D03B6B8F
:103710001BB1BAF80C305A06B3D57B6B002B01F005
:10372000C8807B6BDE88002E00F085870024A146D0
:103730007B6BD3F80080A8F1040555F8043F0134F1
:10374000186801F00DFB2B68B442C3F80090F4D167
:103750004FF0FF333B63B8F1000F9AD19CE715F0AF
:103760008F0F8ED104EB840402EB4404303C42788A
:1037700008461CE70426F963DAF80430002B40F30E
:10378000D9836B0640F1E083731E032B01F2E380C3
:10379000DFE813F00E025B01A7000600B9CE0008B7
:1037A000B86B01F0B3FA631E0268B3F5AE7FBA607E
:1037B00040F2BE856FF4AE72A31840F25D143B6018
:1037C000002607F5AC7351469B46C246B046C7E992
:1037D000036645F4F0657B617E6008680278A2F1BB
:1037E0002B0CBCF14E0F50D8DFE81CF01E034F002D
:1037F0001E034F004F007E037500750075007500B5
:10380000750075007500750075004F004F004F0082
:103810004F004F004F004F002403730073007300EC
:103820007B030A034F004F00B0024F004F004F00D0
:103830004F0064034F0049034F004F004F00420305
:103840004F004F004F00310317034F004F004F0050
:103850004F004F004F004F002403730073007300AC
:103860007B030A034F004F00B0024F004F004F0090
:103870004F0064034F0049034F004F004F004203C5
:103880004F004F004F0031031703BB6893F800C08F
:10389000944513D1AB0511D525F420753E61013C4B
:1038A0000BF8012B4A6809F10109013A002A4A6024
:1038B00040F3208401300860002C8ED1BE62BB6AC8
:1038C0004646D0468A46002B00F0518225F480758A
:1038D0004DE22B05F2D518EB0A0FEFD125F4C07598
:1038E000DDE7631EB3F5AE7F07F5AC734FF000085C
:1038F00088BF6FF4AE721E467B61534694BF4FF093
:10390000000B04EB020BCA4688BF40F25D14C146AF
:103910009846C7F828B0D7F820B045F45865D8F8CD
:1039200000201078A0F12B034D2B63D8DFE813F0B3
:1039300034036200340362006200D2030202020216
:10394000020202020202020202023A033A03620087
:103950006200620062006200620062004E004E007F
:103960004E004E004E004E00620062006200620097
:103970006200620062006200620062006200620037
:103980006200620062006200620042036200620044
:103990006200620062006200620062004E004E003F
:1039A0004E004E004E004E00620062006200620057
:1039B00062006200620062006200620062006200F7
:1039C000620062006200620062004203BBF10A0F03
:1039D00010DD25F4386506F8010BD8F80430013BFA
:1039E000002BC8F8043040F392830132C8F800205D
:1039F000013C94D14346E905C846C7F820B0D146FA
:103A00009A4607D57B699E4200F2BA857B699E4241
:103A10003FF437AE15F0100240F08B833B6A7969B2
:103A2000B86BFC693270A047AA0600F178832B07B7
:103A300000F14E856C0740F1BA86D7F824B05BF8E8
:103A4000043B1880C7F824B070E3002C08BF4FF087
:103A5000FF3415F0010600F08D8315F010037B6133
:103A600040F09785290640F12586D7F824B05BF809
:103A7000043BBB62002B3FF404AE802001F068F9E8
:103A8000804600283FF449AEBB6A7A6B1860D5883F
:103A900093889D4280F0E3841068BB6AC7F824B025
:103AA00040F825307B6B0135DD802023C7F80C8082
:103AB0003B61DAF80030A24A1B78D35C13F00803AC
:103AC0005AD19B4607F5AC7601F01AF958453FF4F8
:103AD0001EAEDAE9003213F8011B013ACAF80030D1
:103AE000BB6906F80B10032BCAF804200BF1010B7D
:103AF00007F1500502D12B68042B04D008220021C5
:103B00002846FFF72DFC32465B464146B86B0095D0
:103B100001F0DAFB421CB8613FF4F9AD002840F037
:103B20009D85C8F8000001F0DDF8002840F0B1865E
:103B3000D944013C7B69002B40F06786BB6A08F1E1
:103B40000408002B00F06186FB68A8EB03053B69C5
:103B5000B3EBA50F40F2C286D7F814B0DAF8043000
:103B6000002B40F35D86DAF80030754A1B78D35C91
:103B70001D0701D4002CA7D17B69002B7FF4ADADCC
:103B8000C8F80030BB6A002B00F03681FB683A6948
:103B9000A8EB03018B1001339A4240F22D81BC6ADD
:103BA0000431206801F0EAFB002840F0C18023E1E5
:103BB000002C08BF4FF0FF34E80740F1428315F0B6
:103BC00010033B6140F0EE842906D7F824B040F1A1
:103BD0007B855BF8043BFB60002B3FF452AD8020FB
:103BE00001F0B6F8054600283FF497ADFB687A6B04
:103BF0001860B2F806809388984580F01C8410689D
:103C0000FB687A6B40F8283008F10103D380202349
:103C1000C7F824B0BD607B600026A846C7F828908E
:103C2000A146BC6907F5AC7B01F06AF8B0423FF4ED
:103C30006EADDAE9003213F8011B013A032C0BF8E0
:103C40000610CAF80420CAF8003006F1010607F190
:103C5000480502D12B68042B04D0082200212846F5
:103C6000FFF77EFB5A4633464146B86B009501F09C
:103C70002BFB421C04463FF44AAD002840F0C383AE
:103C8000C8F80000B86107F1500308220021184667
:103C90007B61FFF765FBD7E90532DFF8A8C0B86B99
:103CA000DCF8E0C007F14001E047012800F046845D
:103CB000002207F158039B5C002B00F09385BB6A40
:103CC000032C3344BB6200F03D8409F1FF393B69AA
:103CD0005BB9FB6808F104083BB1BB68A8EB0305BE
:103CE0007B68B3EBA50F40F23384DAF8043000268A
:103CF000002B40F39083B9F1000F95D14546D7F8DA
:103D00002890BC613B69002B7FF4E7AC2B60FB681B
:103D1000002B71D0BB687A68E91A8B1001339A4284
:103D20006AD9FC680431206801F028FB002863D0C0
:103D3000206061E0044B25F4386533F91BB04AE696
:103D4000B9CE00083C04002094CE0008BAF1000F60
:103D500040F0FD81002E40F0E58205F4E06CBCF5FA
:103D6000E06F00F01585BE624646D0468A46731E57
:103D7000012B40F27E8508F1FF33062B40F2DC82F6
:103D8000EA0513D56B0500F199851BF8011C0BF1B1
:103D9000FF33652909F1FF3402D0452940F00F8334
:103DA0005246B86BA1469B4602F0D0FF15F01002B8
:103DB0007FF493AC05F4C063B3F5806F8BF80020FB
:103DC00000F0D783FB68002B40F0938300227969D1
:103DD000B86B02F0E5FC02460B46EE07C7E90A2382
:103DE000D7F824B040F1D4820A4601465BF8043B80
:103DF000C3E90012C7F824B03B6B01333B636CE4AA
:103E00002B0503D518EB0A0F3FF468ADBAF1020F8A
:103E10007FF454AD4FF0030A41E5BAF1070F7FF488
:103E20004DAD4FF0080A3AE52B067FF547AD25F07A
:103E3000800534E52B0503D518EB0A0F3FF44EAD92
:103E4000B8F1010F7FF43AAD4FF0020827E505F411
:103E5000186CBCF5807F7FF431AD012E7FF42EAD60
:103E6000302645F400650BF8016B013C002616E591
:103E7000BAF1060F7FF422AD4FF0070A0FE52B05CC
:103E80007FF51CAD05F4A06CBCF5806F05D06B050B
:103E90007FF514AD002E3FF466AFAB0504D43B694B
:103EA000C7F804B0F31AFB6025F47865002645F4E2
:103EB000C075F4E4B8F1000F40F041812EB905F46B
:103EC000E06CBCF5E06F00F05D84BAF1010F03D047
:103ED000BAF1040F7FF4F2AC0AF1010A5FFA8AFA30
:103EE000DDE42B05CED5F6E4EB057FF5F4AC3B68BD
:103EF00025F080050136002B40F04582013CD1E4DD
:103F00002A077FF4BEAB32E42E077FF4BAAB4278C7
:103F100045F002050846FFF74ABBF96345F4007512
:103F200010233B628F4B0326FB61DAF80430002B31
:103F30003FF727AC5146B86B02F048FF00287FF4EA
:103F4000E6AB6B063FF520ACDAF800208649137823
:103F5000CB5C18077FF518ACD7F838B007E0CAF883
:103F6000002081491378CB5C19077FF50DACDAF896
:103F7000043009F10109013B002BCAF8043002F1B9
:103F80000102ECDC5146584602F020FF00287FF485
:103F9000BEABDAF80020E4E72B067FF52BAD25F069
:103FA000800518E5714B33F91BB0BBF1080F3FF7E3
:103FB00010AD1FE505F4C063B3F5007F7FF41AADC3
:103FC00025F400754FF0100B45F4A06503E545F0AE
:103FD00001050026F96345F04005FFF7CDBB2A0730
:103FE0007FF44FAB42786C2A00F01F83084645F0FF
:103FF0000105FFF7DCBA2B077FF443AB4278682A50
:1040000000F00D83084645F00405FFF7D0BA002301
:104010003B62574B0326F963FB61FFF7ADBBF963C6
:1040200045F408757CE70226F963FFF7A5BB0A2370
:104030003B624C4B0326F963FB61FFF79DBB15F018
:104040008F037FF41EAB7A6B002A00F01D83427849
:1040500045F080050846FFF7AABAEB0600F1AC81EF
:104060002E0740F14083D7F824B0F9635BF8043B96
:1040700083F80090C7F824B0FFF72FBBF96345F031
:1040800001050A233B623A4B0326FB61FFF774BB31
:10409000F96345F0010508233B62324B0326FB61BF
:1040A000FFF76ABB0226F96345F00105FFF764BB21
:1040B00007F1580001F06CFB012645F04005F8635C
:1040C000FFF75ABB2C437FF4DCAA42781025084640
:1040D000FFF76DBA2B057FF57EACBBF1000F03D166
:1040E0004FF0080B45F40075690540F1418125F456
:1040F000B06570E4B86BB96202F068FEB96A002876
:104100007FF4DCAB002C7FF468ABFFF7D7BB4146F4
:10411000B86B02F05BFE00283FF46AAC6AE4D7F8A3
:1041200024B05BF8043B1860C7F824B03B6B013344
:104130003B637B69F61AB044C144FFF7CEBAB8F1CD
:10414000020F7FF4C2AE4FF00308FFF7A8BBBAF12D
:10415000030F3FF4C1AEBAF1050F3FF4BDAEFFF758
:10416000ADBB00BFA16B0008B9CE000894CE00081B
:10417000CD680008E80600F1CF8215F0800500F058
:104180006682D7F824B05BF8048BB8F1000F3FF4D7
:1041900078AA202000F0DCFD054600283FF4BDAAE7
:1041A0007A6BC8F80000D68893889E4280F016810A
:1041B0001068C7F824B04FF0200B7B6B40F82680C6
:1041C0000136DE80DAF80030B5491A788A5C1007CB
:1041D00000F1F0812E46DAF80420013ACAF80420F2
:1041E0005A1CCAF800201B7805F8013BAB1BB8F13C
:1041F000000F02D05B4580F04D82013C0BD0DAF815
:104200000430002B40F38082DAF80030A4491A7899
:104210008A5C1107DFD5A91B8944013100232B706B
:10422000B8F1000F3FF4E8AD8B457FF6E5ADD8F867
:10423000000001F0A3F800283FF4DEADC8F800004C
:10424000DAE5E80600F1B88115F08005D7F824B06A
:1042500000F044825BF8045BBD62002D3FF411AABC
:10426000202000F075FD064600283FF456AA7A6B20
:1042700028609388D5889D4280F014811068BB6ABD
:10428000C7F824B040F825307B6B0135DD80202550
:10429000DAF8002007F1580B13781BF80330002BD5
:1042A0003FF4EFA9B046C7F81490D946AB4635465F
:1042B000BE6A4146DAF804000138CAF80400501C0E
:1042C000CAF80000107801F8010BA1EB050816B13F
:1042D000D84580F0D8808846013C0BD0DAF804102D
:1042E000002940F31A81DAF80020117819F801103A
:1042F0000029DED14646A8465D46D7F81490B6EBB5
:1043000008083FF4BEA900233370BB6A23B108F14B
:1043100001018D4200F242823B6BC14401333B6399
:10432000FFF7DBB9BE624646D0468A46FFF7CEBAF3
:1043300000233B60FFF744BAB8F1020F40F2E1827C
:10434000B8F1030F3FF41CADA8F10404E4B26FEA26
:104350000408BE6BD8441BF8011D5246304602F0DB
:10436000F5FCD845F7D109F1FF33A3EB040907E5C4
:10437000BB6A25F4607513B1013BBB62013409F1DE
:104380000109FFF72ABB3B68013B3B60FFF78ABA94
:10439000AC0700F1A580D7E90A23FCF7C5FB5BF861
:1043A000044B002840F0BE82D7E90A01FCF7FAFB73
:1043B000C7F824B020601FE5F963FFF78EB95246B5
:1043C000B86B02F0C3FCA9F102041BF8021CABF1AC
:1043D0000203E5E4F9635EE6F96352E64FF6F6722E
:1043E00093423FF69EA97A6B08339BB210689900FE
:1043F000BB6200F0C3FF00283FF493A97A6BBB6A4D
:1044000010609380D5E6831C40F09C82DAF804307B
:10441000002B3FF709AC5146B86B02F0D7FC0028DF
:104420003FF469AC4546D7F82890BC61002E3FF4B4
:1044300069ACFFF76CB94FF6F67293423FF671A97B
:1044400008339EB27B6BB100186800F097FF00281C
:104450003FF467A97B6B9E801860FFF7D1BB4FF6D6
:10446000F67293423FF65DA908339EB27B6BB100B2
:10447000186800F083FF00283FF453A97B6B9E80EF
:104480001860FFF70ABB4FEA4B0B2846594600F06D
:1044900075FF054600283FF440A9804430601BE7C3
:1044A000B9CE00084FF6F67293423FF63AA90833A8
:1044B0001FFA83F87B6B4FEA8801186800F05EFFF3
:1044C00000283FF42EA97B6BA3F804801860D6E681
:1044D000D7F824B05BF8043B1870C7F824B025E681
:1044E0005BF8043BD7E90A12C3E90012C7F824B00D
:1044F00082E47C680A23B86B611C02F0E7F9A346EA
:10450000FB68C21A07F2AB239B4528BF07F2AA2B10
:104510005846C04901F086F958E45146B86B02F09C
:1045200055FC00283FF4DFAE4646A84646455D46AA
:10453000D7F814907FF4E3AEFFF7E9B897F840207E
:10454000FFF7B7BB2B68042B7FF4BFABFFF7BFBBF4
:10455000B868D9001E4600F011FFB86000283FF48B
:10456000DCA8FA68730000EB050810607B60FFF7B9
:10457000BCBB3B69B96A8B42A3EB0102C2D125E403
:1045800016F8011C5246B86B013E02F0DFFBFFF744
:104590003DBA002207F1440398463A61FA60BA62D4
:1045A000FFF787BA002307F14405C7E902337B60B0
:1045B000FFF732BB012131E6DAF8003007F1580B82
:1045C0001A781BF80220002A3FF45BA80133CAF8CE
:1045D0000030DAF80430012C03F1FF33CAF804305C
:1045E0001AD0BD6B10E0DAF800301A7801331BF8EE
:1045F00002208AB1CAF80030DAF804300136013BF3
:10460000B442CAF8043007D0002BECDC51462846EF
:1046100002F0DCFB0028E6D0B144FFF75EB88278F8
:1046200045F008050230FEF7C2BF827845F002056A
:104630000230FEF7BCBF4FF0FF333B637B6BD3F818
:104640000080B8F1000F7FF424A8FFF725B8AB462F
:104650007E6AD84656F8045B7E62B3E5BB690233D6
:104660003FF47CAAD8F8000000F03CFB002840F0A2
:104670001081BB69D944032B7FF45BAA2B68042B00
:104680007FF457AAFFF756BA82B0CDE9023302ABE6
:104690007B63DCE44FEA4B0B30465946BB6200F0CB
:1046A0006DFE064600283FF438A8BB6AC8F8000033
:1046B000C518A2E57E6A7B6956F8048BC7E9033307
:1046C000BB627E62FFF7F5B93B695BF8045BC7E943
:1046D0000133FB60C7F824B0FFF79EBA5BF8046BA8
:1046E000C7E909B5D4E56C0740F1A780D7F824B035
:1046F000F9635BF8043BA3F80090C7F824B0FEF719
:10470000ECBF3A63FEF7C8BF5146B86B02F05EFBE0
:1047100000283FF479AD7EE5DAF800303E491A789A
:104720008A5C11073FF578AF0133CAF80030DAF838
:104730000430012C03F1FF33CAF8043000F0FA8092
:104740000126BD6B13E0DAF8003033491A780133E3
:104750008A5C12073FF560AFCAF80030DAF804301F
:104760000136013BB442CAF804303FF455AF002B88
:10477000E9DC5146284602F029FB0028E3D0B14489
:10478000FEF7ABBF4FF0010825F4F065FFF787B8DF
:104790004FF0010A25F4F065FFF781B818681C4650
:1047A00000F0ECFD00283FF4B7AD2060B4E515F053
:1047B00001027FF4B4ACA9077FF5B1AC174BF969DE
:1047C000B86B99423B6A796900F0B88002F048F909
:1047D0000B46D7F824B05BF8041BC1E90003C7F807
:1047E00024B0A3E44546D7F82890BC61002E3FF4DE
:1047F00089AABC6B013E524620461BF8061002F007
:10480000A5FA002EF6D1FFF77DBA4FF0000BFFF7A7
:10481000A5B900BF8CCE0008B9CE0008A16B000876
:104820005146B86B02F0D2FA00283FF49CA9BBF1C4
:10483000000F7EF46CAFFFF79FB9E8070ED4AA070C
:104840000CD5D7F824B04FEAE9735BF8042BF96371
:10485000C2E90093C7F824B0FEF73FBFD7F824B0F1
:10486000F9635BF8043BC3F80090C7F824B0FEF787
:1048700034BF7C69D7F83890A3457EF602AF1BF8A9
:10488000011D5246484602F061FAA345F7D1FEF7F2
:10489000F8BEBBF1000F3FF46FA95C46BD6B013C55
:1048A00052462846315D02F051FA002CF7D1FFF74D
:1048B00063B94FF0FF333B63FEF7EEBE7C69D7F878
:1048C0003890A3457EF6DDAE1BF8011D52464846E2
:1048D00002F03CFAA345F7D1FEF7D3BEF868D90041
:1048E00000F04CFDF86000283EF417AF3B69B96A50
:1048F0005B00D7F814B000EB050808603B61FFF7D8
:104900002DB97B69D7F838909B457EF6BAAE1BF877
:10491000011D5246484602F019FA7B699B45F6D1C3
:10492000FEF7AFBEB248C7F824B000F077FF2060B2
:10493000FFF762BA2646B144FEF7CFBE02F004FA92
:104940000B4646E7D8F80030BB6101337FF49BA9E2
:10495000BA69FFF7AEB9012C38BF012415F0010385
:1049600000F0988015F010037B6140F0DA802A0691
:1049700040F1DE80D7F824B05BF8043BBB62002B2B
:104980003EF47FAE802000F0E3F9064600283EF4B6
:10499000C4AEBB6A7A6B1860B2F8068093889845FB
:1049A000C0F0F6804FF6F67293423EF6BAAE083388
:1049B0009DB27B6BA900186800F0E0FC00283EF473
:1049C000B0AE7B6B9D801860BB6AC7F824B040F81E
:1049D00028307B6B08F10108A3F80680B3464FF03E
:1049E0002008002500F08CF9A8423EF490AEDAE9E8
:1049F000003213F8011B013ACAF8042007F5AC7223
:104A00005155BA69CAF80030032A05F1010307F1CC
:104A1000500502D12A68042A06D00822002128461F
:104A2000BB61FEF79DFCBB693146B86B009507F58D
:104A3000AC723B6100F048FC431CB8613EF467AEC9
:104A40003B69002840F0B4807A6902B93260994429
:104A5000013C7B6943B9BB6A2BB1A6EB0B05B8EBF4
:104A6000A50F40F2D9800436DAF804300025002B77
:104A700040F3A780002CB5D1BB6A2BB1A6EB0B018C
:104A8000B8EBA10F00F2D7807B69002B7EF425AE36
:104A9000FFF7B2B9EE0654D42D066AD57E6A56F8F1
:104AA000045B002D3EF4EDAD204600F051F9804648
:104AB00000283EF432AE7A6B2860B2F806B09388D4
:104AC0009B4573D34FF6F67293423EF62AAE7A6B4D
:104AD00008339BB210689900BB6200F04FFC0028BD
:104AE0003EF41FAE7A6BBB6A106093807B6B40F81C
:104AF0002B500BF1010BA3F806B0414623460122CF
:104B0000B86BCDF800A002F07FF98046002864D091
:104B100084426FD83B6BC14401337E623B63FEF736
:104B2000DCBD4FF00008C3464646C7F8288058E76A
:104B30007B6A7A6953F8046B90469346BA627B624B
:104B40004FE71D46DAF804309C4223DDDAF80020F6
:104B500051461A44B86BCAF800201D44E41A02F00A
:104B600035F90028EED0002D3EF4D1ADA944FEF772
:104B7000B4BD7E6A234631680122B86BCDF800A02F
:104B800002F042F9804600283EF4C1AD0436C1E788
:104B9000106819E71B1BCAF80430DAF80030254406
:104BA0001C44CAF80040A944FEF797BD10689DE771
:104BB000BA69023226D1DAF804201D46002A3FF7EE
:104BC00011AF5146B86B02F001F900283FF452AF23
:104BD000002D3FF451AFFEF79ABD3B6B002B3EF426
:104BE000A0ADBAF80C305B067EF54DADFEF799BD71
:104BF00058D400080146286800F0C0FB002889D07E
:104C0000286087E79944BB69032B7FF421AF2B68A9
:104C1000042B7FF41DAF1CE758464FEAC80100F093
:104C2000ADFB834600283EF478ADBB6A4619186098
:104C30004FEA480817E7BC6A206800F09FFB00288D
:104C40003FF422AF20601FE738B50C461146002222
:104C50008446074D20462A601A466446FCF71EFC2F
:104C6000431C00D038BD2B68002BFBD0236038BD1F
:104C7000CC0B0020024B13B1024800F005B870477E
:104C800000000000B94C0008002301461A461846EF
:104C900003F0B0BE002238B5064D044608462A602F
:104CA000FCF70AFC431C00D038BD2B68002BFBD05E
:104CB000236038BDCC0B002038B5084B084D5B1B7A
:104CC0009C1007D0043B1D44013C55F8043998471B
:104CD000002CF9D1BDE8384008F0AEB8C0D40008C7
:104CE000BCD40008002100F001B800BFFF289DBF20
:104CF000024BC05C00F0080000207047B9CE0008ED
:104D0000014B93F8280170473C040020004870478D
:104D10002C050020704700BF704700BF704700BFE0
:104D2000704700BF38B50C46114600228446074D37
:104D300020462A601A466446FCF7C8FB431C00D094
:104D400038BD2B68002BFBD0236038BDCC0B002076
:104D5000024B0146186800F00BB800BF0C000020A1
:104D6000024B0146186805F031B800BF0C00002066
:104D70002DE9F04F01F10B05162D064683B025D81D
:104D8000102900F2B88000F0D7FA102518224FF051
:104D9000020CB54F3A445368A2F108018B4200F06F
:104DA000B7805A68D96822F003021A449C683046DA
:104DB000E1608C60516803F1080441F00101516029
:104DC00000F0C0FA204603B0BDE8F08F35F00705CB
:104DD00000F19180A94200F28E8000F0ADFAB5F5A5
:104DE000FC7FC0F094816B0A00F08C80042B00F2F1
:104DF0006A81AB0903F1390C03F138044FEACC00A6
:104E0000994F384443680838984206D10CE000298D
:104E100080F22681DB68984206D05A6822F00302AD
:104E2000511B0F29F3DDA4463C69DFF840E27445CD
:104E30007AD0626822F00302531B0F2B00F37681B5
:104E4000002BC7E904EE80F26781B2F5007F80F0A5
:104E500019810121D30852090B4491407A6857F80F
:104E600033000A4307EBC3010839A060E1607A60B0
:104E700047F83340C46001214FEAAC0399409142A6
:104E800059D8114206D12CF0030C490011420CF103
:104E9000040CFAD007EBCC0948466446D0F80C80E5
:104EA000404508D11CE1002B80F22181D8F80C800C
:104EB000404500F01581D8F8042022F00302531B6E
:104EC0000F2BF0DD08EB050145F00105C8F8045093
:104ED0003046D8E90264F460A66043F00104C7E9F3
:104EE00004114C60C1E902EE48F8023000F02AFAE1
:104EF00008F1080402E00C2300243360204603B0CC
:104F0000BDE8F08F4FF400704FF0400C3F2477E77E
:104F1000D3689A4208BF0CF1020C7FF442AF3C699F
:104F2000DFF848E1744584D101217A684FEAAC0387
:104F300099409142A5D9BC68636823F003094D45A7
:104F400003D8A9EB05030F2B7ADCDFF824B1494B1A
:104F5000DBF800201B6801322B4404EB090A00F047
:104F60002F8103F580530F3323F47F6828F00F0857
:104F70004146304600F0FAFB411C024600F0EF804B
:104F8000824500F2EA803C4B1968414408461960AA
:104F900000F04981DBF80010019301311BBFA2EB47
:104FA0000A0A5044CBF80020186012F0070B00F0FA
:104FB0001181CBF108010A44CBF5805190440831AE
:104FC000A1EB0801C1F30B0A51463046009200F0F4
:104FD000CDFB421CDDE9002300F04B81801A00EB81
:104FE0000A08196848F001005144BC42BA601960CF
:104FF000506000F02481B9F10F0F40F222814FF090
:10500000050E6068A9F10C0C2CF0070C00F00100F3
:1050100040EA0C006060BCF10F0F04EB0C00C0E92B
:1050200001EE00F22E8114465068144B1A688A4231
:1050300038BF1960124B1A688A4238BF196090E075
:10504000621943F0010345F0010565603046BA601E
:105050000834536000F076F9204603B0BDE8F08FC5
:10506000D9681A44A2E600BFA8050020B0050020B8
:10507000B0090020C80B0020980B0020C00B0020B6
:10508000C40B0020B2F5206F4FEA52235FD3142BDC
:1050900000F2B18003F15C01C9005B3378187958E4
:1050A0000838884200F08F804B6823F00303934256
:1050B00002D989688842F7D1C8687A68C4E90210C1
:1050C0008460CC60D7E6142B59D9542B00F29B8016
:1050D0002B0B03F16F0C03F16E044FEACC008FE64B
:1050E0000134A30700F108007FF4D8AE53E0444632
:1050F00042445368D8F80C1043F00103536054F84D
:10510000083F3046D9608B6000F01CF9F6E64FEAA4
:10511000D50C05F108023CE622445368304643F0C2
:105120000103536000F00EF90834E7E6611945F019
:105130000105656043F00105C7E904113046C1E986
:1051400002EE4D60A35000F0FDF80834D6E6930956
:1051500003F13901C9003833A0E7BC425ED0BC6816
:10516000606820F003084545A8EB050302D80F2B23
:105170003FF766AF304600F0E5F80024BEE603F1E5
:105180005C0C03F15B044FEACC0039E659F80839AE
:105190004B4540F095801CF0030F0CF1FF3CF5D11E
:1051A0007B6823EA01037B60490099423FF6C3AE66
:1051B00011B9C0E6490004341942FBD0A44669E69F
:1051C00003F11008D4E601229B109A407B681A4331
:1051D0007A6073E702EB08014942C1F30B0A5146BA
:1051E0003046009200F0C2FA431CDDE900237FF450
:1051F000F5AEDA46F5E6542B26D8130B03F16F0112
:10520000C9006E334AE7B3F5AA7F26D8EB0B03F14A
:10521000780C03F177044FEACC00F1E5294B1868CC
:1052200040441860B6E6CAF30B0CBCF1000F7FF4E3
:10523000B1AEBC68C84448F001006060F5E61446B1
:10524000F3E60123536095E7B3F5AA7F24D8D30B87
:1052500003F17801C900773320E740F254529342BA
:1052600024D8AB0C03F17D0C03F17C044FEACC0095
:10527000C6E5ABF1080BD8444FF0000AA8EB0208D2
:10528000AFE604F108013046009304F09FFDBC68CE
:10529000009B60681968C8E640F254518B420BD8F5
:1052A000930C03F17D01C9007C33F7E64FF47E7067
:1052B0004FF07F0C7E24A3E54FF47E717E23EDE654
:1052C0007B6871E7980B002070B582B00546069C9C
:1052D00042B10C4E0094D6F8E460B047431C0BD0AA
:1052E00002B070BD074B1146D3F8E460064A0123B3
:1052F0000094B047431CF3D100228A2322602B6024
:1053000002B070BD3C04002058D4000882B049B1FE
:105310005AB16BB113780B601278101E18BF0120C0
:1053200002B0704701A9002AF3D1104602B07047BD
:105330006FF00100F4E700BF0148FFF7EFBC00BFCA
:105340008C0B00200148FFF7EBBC00BF8C0B00204A
:1053500038B50C46114600228446074D20462A6087
:105360001A466446FCF78AF8431C00D038BD2B6807
:10537000002BFBD0236038BDCC0B002003460A462F
:1053800002490868194600F003B800BF0C0000206D
:105390002DE9F84F1646002900F0988006F10B051C
:1053A00080460C46FFF7C8FF162D5DD810252A460B
:1053B000AE425ED854F8041CA4F1080921F003079A
:1053C000974262DABC4B09EB0700D3F808C084456A
:1053D00000F09780D0F804C02CF0010303445B6810
:1053E000DB0768D42CF0030C07EB0C03934247DA7D
:1053F000CB0710D454F8083CA9EB030ADAF80430C0
:1054000023F003018C44BC44944580F211817B1845
:10541000934280F2E88031464046FFF7A9FC0646F9
:10542000E0B154F8043CA0F1080223F001034B441E
:10543000934200F0D2803A1F242A00F2F580132A0A
:1054400000F2AC8003462246116819605168596029
:1054500092689A602146404604F0B8FC4046FFF747
:1054600071FF3046BDE8F88F25F00705002D2A466C
:105470009EDA0C230026C8F800303046BDE8F88FCD
:105480001F46D0E90223D3609A607B1B0F2B22D8E2
:10549000D9F8043003F001033B43C9F804304F440A
:1054A0007B6843F001037B6026464046FFF74AFFD6
:1054B0003046BDE8F88FC907ADD454F8083CA9EBD5
:1054C000030ADAF8041021F00301A0E71146BDE851
:1054D000F84FFFF74DBCD9F8041043F0010301F079
:1054E00001012943C9F8041009EB05014B604F4441
:1054F0007B68404643F0010308317B6004F066FCA2
:10550000D2E7DCF8040020F0030B07EB0B0C05F1ED
:10551000100084454DDAC9073FF57DAF54F8081CEB
:10552000A9EB010ADAF8041021F003018B44BB4413
:1055300058453FF76CAF5646DAF80C1056F8080F8E
:105540003A1F242AC160886000F2DB80132A40F2EF
:10555000D68021681B2ACAF808106168CAF80C10A6
:1055600000F2E08008340AF11002216811606168DD
:105570005160A1689160ABEB05020AEB050142F0B6
:10558000010299604A60DAF80430404603F00103F2
:105590001D43CAF80450FFF7D5FE6EE723681B2AA7
:1055A00003606368436068D804F1080200F10803EF
:1055B0004AE709EB0502ACEB050C9A604CF00103DD
:1055C000536054F8043C404603F001031D4344F883
:1055D000045CFFF7B7FE26464FE750F8043C23F083
:1055E00003031F4451E75646DAF80C1056F8080F2B
:1055F0003A1F242AC16088604CD8132A48D92168F0
:105600001B2ACAF808106168CAF80C1056D808346A
:105610000AF110021F462368D14613606368536085
:10562000A3683446936030E7214605F05FF911E73F
:105630005646D0E90213CB60996056F8081FDAF895
:105640000C303A1F242ACB6099602DD8132A29D90F
:1056500023681B2ACAF808306368CAF80C3042D89D
:1056600008340AF11003226867461A606268D1465E
:105670005A60A26834469A6007E7A368242A8360C8
:10568000E368C36026D004F1100200F11003DBE6EA
:105690003246BFE7214630461F46D14605F026F97F
:1056A0003446F2E63346DEE7214630466746D146C9
:1056B00005F01CF93446E8E6A8050020A168242A74
:1056C000CAF81010E168CAF8141020D010340AF19A
:1056D00018029FE7236904F11802036163694361BB
:1056E00000F11803B0E6A368242ACAF81030E36872
:1056F000CAF8143022D010340AF11803B3E7324646
:1057000033E72146304605F0F1F8174B33E72269BD
:105710001834CAF8182054F8042CCAF81C200AF1CE
:10572000200277E7A168242ACAF81010E168CAF8B5
:1057300014100ED010340AF1180216E72369183439
:10574000CAF8183054F8043CCAF81C300AF1200397
:1057500089E722691834CAF8182054F8042CCAF8CA
:105760001C200AF1200200E7A8050020002238B51D
:10577000064D044608462A60FBF7AAFE431C00D0EB
:1057800038BD2B68002BFBD0236038BDCC0B00202C
:10579000F0B50D7804465E2D21D00022964601F129
:1057A000010C631E04F1FF0103F8012F8B42FBD1B2
:1057B00095B1E6438EF0010262550CF1010E1EF820
:1057C000013C70462D2B10D05D2B04D013B11D462B
:1057D000F446F1E76046F0BD0CF1FF30F0BD012268
:1057E0004D78964601F1020CDBE79CF801005D283C
:1057F000EDD08542EBDC6F1C0CF1020CE31903F8D1
:10580000012BF1188842FADC431B013B8542A8BFFB
:1058100000230EF1020EDD19D1E700BF00487047EA
:105820000000C07F0EB430B504466FF000459CB058
:105830000B4A1FAB0B49059253F8042B086802A9C9
:10584000CDE9013407950495069401F037FB002259
:10585000029B1A701CB0BDE8304003B0704700BF17
:105860000802FFFF0C0000202DE9F04F00258246C2
:105870009748A1B00068884607921C4608901C957E
:10588000FDF734FE0021834600204246CDE90401A5
:10589000CDF86C80174612F8013B2D2B2FD8DFE88E
:1058A00013F0A0002E002E002E002E002E002E0041
:1058B0002E002E00AD00AD00AD00AD00AD002E00FD
:1058C0002E002E002E002E002E002E002E002E0068
:1058D0002E002E002E002E002E002E002E002E0058
:1058E0002E00AD002E002E002E002E002E002E00C9
:1058F0002E002E002E002E0002042E00F80300229F
:105900000992302B7CD000220B922F2B1C4640F2A8
:1059100029854FF0000938464E464D4612E00130C9
:10592000082D1B90C8BF09EB89090478C6BF03EB9B
:105930004903A3F13009A2F130062F2C234605F1CB
:1059400001056EDD06EB8602392C03EB4202E6DD33
:105950005A46089905F09CFD002835D11B9B1A4634
:105960005B441B9312F80B40002D40F0A885302CAF
:1059700040F06085C3F10102981801331B931C7835
:10598000302CF9D0A4F13103082B00F23583A4F1B7
:10599000300E1B9C00230125274600F1010B0A93C2
:1059A000002006EB86060EEB4606631C1B9364780C
:1059B000A4F13001092900F2E9828E460130002964
:1059C00040F0AF841B9CF0E70020652C83468446A2
:1059D0000A9501D0452C30D1002D7ED10B9B03437D
:1059E0007AD14FF0000B079BD94613B1079BC3F840
:1059F00000805846494621B0BDE8F08F1B9249E728
:105A00007B7803F0DF03582B00F06D8401371B9780
:105A10003B78302BFAD0002B00F0CE8001220B9285
:105A200073E75A46089905F033FD002800F0D78047
:105A30000A954FF0000B5846DC4600230C93002DCE
:105A400000F096800A9A30461346002A08BF2B467B
:105A50000A93FAF7BFFC02460B46DDF830C0102D62
:105A60002C46ACEB0B0CA8BF1024092DCDE9042368
:105A7000CDF82CC014DD174B03EBC40353E91223FC
:105A8000FAF722FD0246484690468946FAF7A2FCFC
:105A900002460B4640464946FAF760FBCDE9040151
:105AA0000F2D00F3A5800B9B002B00F00F840B9BA8
:105AB00040F38A83162B40F3F4840B9AC5F1250337
:105AC000934280F207850B9B2C1B1C4496E000BF81
:105AD000C0D2000878D300080025DDF86C8008F1FA
